:020000040800F2
:10000000F0430020F93400081D0800081F0800080C
:1000100023080008270800082B080008000000003B
:100020000000000000000000000000002F08000891
:1000300031080008000000002BE9000889320008A0
:10004000690D000813350008133500081335000842
:100050001335000813350008470C00081335000855
:100060001335000813350008133500081335000850
:100070001335000813350008133500081335000840
:100080001335000813350008133500081335000830
:100090001335000813350008133500081335000820
:1000A0001335000813350008133500081335000810
:1000B00013350008EF0D000813350008133500084C
:1000C00013350008133500081335000813350008F0
:1000D000133500086734000813350008133500088D
:1000E000810C0008133500081335000800F002F8F1
:1000F00000F03FF80AA090E8000C82448344AAF183
:100100000107DA4501D100F034F8AFF2090EBAE880
:100110000F0013F0010F18BFFB1A43F0010318473B
:1001200068F7000088F70000103A24BF78C878C14B
:10013000FAD8520724BF30C830C144BF04680C60ED
:10014000704700000023002400250026103A28BF35
:1001500078C1FBD8520728BF30C148BF0B60704739
:1001600078290EF0DD82002070471FB51FBD10B545
:1001700010BD0EF08DFB1146FFF7F7FF00F0C2FA3D
:100180000EF0ABFB03B4FFF7F2FF03BC03F010F972
:1001900038B504460D46FEA282211E2003F034F835
:1001A000102003230090FD4802788321B62002F03E
:1001B000B3FFFA480078401CF849087038BD1FB5F5
:1001C00017E000F074FC03909DF80C0038B102A811
:1001D0000023012203A90090F1480AF0E8F902A8DF
:1001E00008210A230022CDE90010114610460DF027
:1001F00062FAE6E70EB500250024B4E00C2C41D2EB
:10020000DFE804F0060B0F13181D22272C31363BB4
:100210004FF6FF7001F0A9F834E0002001F0A5F8D6
:1002200030E01F2001F0A1F82CE04FF4784001F0FD
:100230009CF827E04FF61F0001F097F822E04FF4FA
:10024000FC6001F092F81DE047F6FF7001F08DF8B8
:1002500018E04FF6E07001F088F813E04FF6074021
:1002600001F083F80EE048F2304001F07EF809E03A
:100270004CF2186001F079F804E04BF6404001F0D0
:1002800074F800BF00BF4FF47840C649088000BF33
:1002900000BF00BF05F0DCF8054600BF00BFC24844
:1002A0000078401CC049087000BF00BF284605F018
:1002B000D3F800BF00BF00BFBCA232211E2002F055
:1002C000A3FFBEA246211E2002F09EFFC1A25A211A
:1002D0001E2002F099FFC3A26E211E2002F094FF9F
:1002E00000BF00BF00BF05F0B3F8054600BF00BF68
:1002F000AD480078401EAC49087008460078A0B9A7
:10030000BB480088002809DD00BF00BF284605F073
:10031000A3F800BF00BF07F0CEFA0DE000BF00BF9A
:10032000284605F099F800BF06E000BF00BF284648
:1003300005F092F800BF00BF00BF601CC4B20C2CD7
:1003400000D10024AB48006808B9012000E000207B
:10035000A849086002A800210B460122CDE900103F
:1003600008460DF0A8F949E71FB549E002A80021A9
:1003700003AB0A46CDE90010894809F0D7FE0446D0
:10038000207878B1012819D0022838D19A4800681D
:10039000C0439A49C1F8880199A2AA21322002F0EB
:1003A00033FF2CE093480068C0439749C1F8A0018F
:1003B00096A2AA21322002F027FF20E0954800787B
:1003C00008B9012000E00020924908700846007832
:1003D00048B102A990480DF0A5FD90A2AA213220B3
:1003E00002F012FF0AE002AB002211468A480DF02B
:1003F00031FE8DA2AA21322002F006FF00BF00BF0D
:10040000B4E70EB500BF19E000207A49086002A8E1
:100410000021C8230A46CDE9001008460DF04BF92B
:1004200001207949C1F8A00102A800214FF4FA7314
:100430000A46CDE9001008460DF03DF9E4E730B575
:100440008BB00446002500BF04F0CAFE0AA80AF0DB
:10045000C0FD0AAA0121084606F045FE00BF00BF04
:1004600000BF04F0F5FF054600BF00BF4E4800780E
:10047000401C4D49087000BF00BF284604F0ECFF47
:1004800000BF00BF00BF0AA8032100220592CDE9EA
:1004900006210890104680210C22664BCDE90132DE
:1004A000CDE9031004200023AFF2A90262A100905D
:1004B00064480BF065F90AA8032100220592CDE9F2
:1004C00006210890104680210C225F4BCDE90132B5
:1004D000CDE9031006200023AFF273125BA1009058
:1004E0005D480BF04DF90AA8032100220592CDE9E1
:1004F00006210890104680210C22584BCDE901328C
:10050000CDE9031007200023AFF2173254A1009069
:1005100056480BF035F90AA8032100220592CDE9CF
:1005200006210890104680210C22514BCDE9013262
:10053000CDE9031008200023AFF27D324DA10090D9
:100540004F480BF01DF90AAB01224EA1144809F0E7
:1005500048FC0AAB04224DA14F4809F042FC0AA80E
:100560000021AFF2D3320223CDE90032CDE90210EF
:100570006423142249A128480DF0DBFA0AA9264871
:100580000DF0D0FC0AA947480CF06FFC00BF8BE0CF
:1005900054696D657220696E7400000001000020CE
:1005A000241500201A000020B80000204D696E6953
:1005B0002053544D3332205E5F5E0000322E3427CC
:1005C0002F322E3827205446544C43442054455350
:1005D0005400000041544F4D40414C49454E544554
:1005E0004B000000323031302F31322F33300000D9
:1005F0007C000020A001214288812242008022420A
:1006000057414B4555502100000021424B45593080
:100610000000000000000020F0140020544D523172
:100620002053544152542100544D52312053544FC1
:1006300050212000A40A00206C656430207461738E
:100640006B000000E00900202C1000204B455920D1
:100650007461736B00000000680F0020F01200202E
:100660004C4344207461736B000000002C12002086
:10067000680D00204D61696E207461736B0000008D
:10068000A40C00204B4559204D7367004441544150
:10069000204D73670000000054150020746D723106
:1006A000000000001C01002000BF00BF04F0D0FECD
:1006B000054600BF00BF51480078401E4F490870F2
:1006C00008460078A0B94E480088002809DD00BF20
:1006D00000BF284604F0C0FE00BF00BF07F0EBF8E3
:1006E0000DE000BF00BF284604F0B6FE00BF06E0E4
:1006F00000BF00BF284604F0AFFE00BF00BF00BF30
:100700000BB030BD8AB0002400F003F902F0C8FD40
:100710004FF4A06002F010FF4FF4165002F057FEA5
:1007200000F078F900F0A8F900F03CFE4FF47840B2
:100730003449088009A806F0A7FA00BF00BF00BF2F
:1007400004F086FE044600BF00BF2C480078401C21
:100750002A49087000BF00BF204604F07DFE00BF9C
:1007600000BF00BF09A8032100220592CDE90621A0
:10077000089010464FF400713322234BCDE901322B
:10078000CDE9031003200023AFF24D321FA10090EA
:1007900021480AF0F5FF00BF00BF00BF04F058FE7B
:1007A000044600BF00BF15480078401E134908707A
:1007B00008460078A0B912480088002809DD00BF6B
:1007C00000BF204604F048FE00BF00BF07F073F8EA
:1007D0000DE000BF00BF204604F03EFE00BF06E073
:1007E00000BF00BF204604F037FE00BF00BF00BFBF
:1007F00009A806F018FD00BFFEE70000B8000020C1
:100800007C0000201A000020E00100207374617257
:1008100074207461736B00001C010020704700BFDE
:10082000FEE700BFFEE700BFFEE700BFFEE7704740
:10083000704700000CB50020019000906C480068E3
:1008400040F480306A49086000BF6948006800F4DD
:10085000003000900198401C0190009818B9019850
:10086000B0F5A06FF1D16248006800F4003010B11B
:100870000120009001E0002000900098012843D161
:100880005C48006840F010005A490860084600685B
:1008900020F0030008600846006840F0020008608D
:1008A00053484068524948600846406848600846D6
:1008B000406840F4806048600846406820F47C103E
:1008C00048600846406840F4E81048600846006800
:1008D00040F08070086000BF4548006800F000707C
:1008E0000028F9D04248406820F0030040494860A1
:1008F0000846406840F00200486000BF3C4840683D
:1009000000F00C000828F9D10CBD10B5FFF792FFDC
:1009100010BD10B53648006840F001003449086049
:100920000846406834490840314948600846006834
:10093000324908402E4908600846006820F48020AB
:1009400008600846406820F4FE0048604FF41F002D
:100950008860FFF7DAFF4FF000602949086010BD9A
:1009600010B5002100200022214B5B6803F00C0130
:1009700021B1042906D0082928D107E0214B224CB7
:10098000236027E01F4B204C236023E0184B5B685B
:1009900003F47010164B5B6803F48032022303EB00
:1009A000904022B9194B4343174C23600DE0104B84
:1009B0005B6803F4003323B1144B4343124C2360B0
:1009C00003E0104B4343104C236003E00D4B0E4CEF
:1009D000236000BF00BF064B5B68C3F303130C4CDE
:1009E000E15C094B1B68CB40074C236010BD000045
:1009F00000100240002002400000FFF8FFFFF6FE5A
:100A000008ED00E000127A000400002000093D001B
:100A10000800002008B50121042003F0C5F94FF4B7
:100A20008070ADF8000010208DF8030003208DF8D1
:100A3000020069460E4802F0DBFE4FF480710C485C
:100A400002F083FF0121202003F0AEF90420ADF86D
:100A5000000010208DF8030003208DF80200694685
:100A6000044802F0C5FE0421024802F06EFF08BDF2
:100A7000000801400014014008B50121042003F0E2
:100A800093F94FF42040ADF8000048208DF80300A2
:100A900069462E4802F0ACFE0120ADF80000282087
:100AA0008DF803006946294802F0A2FE08BD10B582
:100AB0000121274802F06DFF2648007878B32648C8
:100AC000006840B124480830006820B1224834381A
:100AD0000068012824D10A2002F03BFC00201D49B7
:100AE00008701D48006828B901211C4802F051FF18
:100AF000012010BD18480830006828B901211748A6
:100B000002F047FF0220F4E7134834380068012858
:100B100016D10121114802F03CFF0320E9E7FFE76D
:100B20000D48006801280BD10B48083000680128E7
:100B300006D109483438006810B901200549087009
:100B40000121064802F025FF0020D2E700080140FD
:100B5000000430001800002034012142000230005F
:100B60001FB501215A4802F014FF0121052003F0AE
:100B70001BF94FF42040ADF80C0048208DF80F0011
:100B800003A9544802F034FE0120ADF80C002820DF
:100B90008DF80F0003A94F4802F02AFE0D21002016
:100BA00002F03CFF4FF40050019000208DF8080047
:100BB0000C208DF8090001208DF80A0001A802F030
:100BC00037FD0F21002002F029FF4FF40040019073
:100BD00000208DF808000C208DF8090001208DF808
:100BE0000A0001A802F024FD0021084602F016FFC9
:100BF0000120019000208DF8080008208DF80900E0
:100C000001208DF80A0001A802F012FD28208DF8BD
:100C1000000002208DF8010001208DF802008DF8FF
:100C20000300684602F08DFC06208DF800000220CB
:100C30008DF801008DF8020001208DF80300684650
:100C400002F07FFC1FBD10B50A2002F082FB0120DC
:100C500002F054FD80B12048006808B9012000E08E
:100C600000201D4908601D48D0F8880108B90120FE
:100C700000E000201A490860012002F050FD10BD7C
:100C800010B50A2002F065FB4FF4005002F036FD6B
:100C900040B11148006808B9012000E000200E4969
:100CA00008600CE04FF4004002F028FD38B10C4819
:100CB000006808B9012000E00020094908604FF4ED
:100CC000005002F02CFD4FF4004002F028FD10BD52
:100CD0000002300000080140A001214200802242B1
:100CE0008881224270B505460C4645F2555002F007
:100CF000CDFE284602F0CDFE204602F0CDFE02F0E9
:100D0000CEFE02F0D1FE70BD10B502F0C8FE10BDDF
:100D100008B500208DF8000002208DF801000320A6
:100D20008DF80200684602F00CFC08BD70B506465E
:100D30000C4615460121C80203F043F8284604F08A
:100D4000B4F9204604F0BAF9304604F0D2F904F0C0
:100D5000DBF9FFF7DDFF04F0C2F970BD10B5044602
:100D6000204604F0C6F910BD10B57F2004F0BBF991
:100D700004F0CAF90448006808B9012000E0002026
:100D80000149086010BD0000888122427FB50446F9
:100D90000D460121022003F014F841F28830ADF82D
:100DA000080041F61F40ADF804000020ADF80A002D
:100DB000ADF8060001A9174803F02EF901224121E0
:100DC000144803F0A0FC1D208DF8000000208DF8D1
:100DD000010003208DF8020001208DF80300684611
:100DE00002F0AFFB01210B4803F072FC7FBD10B590
:100DF0000121084803F035FF58B10121054803F0EF
:100E000041FF0548006808B9012000E000200249C0
:100E1000086010BD00040040888122424FF48071B8
:100E2000FE4A516149005161FD49086080215161CC
:100E3000116189001161704710B54FF08830F84991
:100E40000C390860091D08600020F5490860881504
:100E5000F24908614000486140204861F14800883B
:100E600048F68911884202D1022002F047FA402058
:100E7000EA490861EA48001F006884B24815086121
:100E80004FF03330E6490C390860091D08604FF611
:100E9000FF70E3490860204610BD10B504460B46BC
:100EA0002046FFF7BBFF4FF48070DC49086140002B
:100EB0004861DB4803608020486108618000086168
:100EC00010BD10B504462046FFF7A8FFFFF7B4FF9A
:100ED00010BD00B5D348008849F24131884203D1A2
:100EE0002C20FFF79BFF02E02220FFF797FF00BDB9
:100EF0004FF48071C94A116149005161C8490860C5
:100F000080215161116189001161704730B501463E
:100F100001F01F04C1F34513CA0AE50205EB4315AE
:100F20001544A8B230BD2DE9F04105460E46F02D1E
:100F300002DAB6F5A07F02DB0020BDE8F081314681
:100F400028460DF023FDB748008849F24131884218
:100F500003D12E20FFF762FF02E02220FFF75EFFA1
:100F60004FF08830AE490C390860091D08604FF613
:100F7000FF70AB4908608815A849086140004861C6
:100F80004020486108614861A648008848F68911F8
:100F9000884202D1022002F0B1F940209F49086145
:100FA0009F48001F006884B29E48008849F2413182
:100FB00088420DD140209949486108619848001F36
:100FC00000681FFA80F8E7B24FF6FF7000EA0727C3
:100FD0004FF40070914908614FF0333090490C395B
:100FE0000860091D08604FF6FF708D4908608D4844
:100FF000008844F23551884210D08A480088091F81
:1010000088420BD08748008848F68911884205D06D
:10101000844800884BF20551884201D120468CE774
:101020008048008849F24131884207D1E012C0026D
:10103000B91240EA411040EAE8207EE72046FFF777
:1010400065FF7AE700B57748008849F24131884268
:1010500003D12920FFF7E2FE04E040F273110720DC
:10106000FFF71BFF00BD00B56E48008849F2413113
:10107000884203D12820FFF7D1FE03E0002107209A
:10108000FFF70BFF00BD70B505460024002665483C
:10109000008849F2413188427ED1082D1CD2DFE818
:1010A00005F00406090C0F12151800BF14E044F0F7
:1010B000800411E044F040040EE044F0C0040BE072
:1010C00044F0200408E044F0600405E044F0A0048B
:1010D00002E044F0E00400BF00BF362644F00804FC
:1010E00021463046FFF7D9FE04F02000002875D0D5
:1010F0002A20FFF793FE4FF48070484908614000B2
:1011000048610020464908608020444948610861E0
:10111000800008614010086140004861002040499B
:10112000086080203D4948610861800008614010E6
:101130000861400048610120394908608020374932
:101140004861086180000861401008614000486102
:101150003F203349086080203049486108618000A1
:1011600008612B20FFF75AFE4FF480702B4908616D
:101170004000486100202A490860802027494861D2
:10118000086180000861401008614000486100204B
:1011900023490860802000E09AE020494861086106
:1011A00080000861401008614000486100201C492F
:1011B000086080201949486108618000086140107A
:1011C000086140004861EF201549086080201349FC
:1011D0004861086180000861ACE0FFE72A20FFF762
:1011E0001DFE4FF480700D490861400048610020E9
:1011F0000B49086080200949486108618000086146
:1012000040100861400048610020054908608020C6
:101210000249486108618000086105E00010014052
:101220000C0C01401E000020401008614000486185
:101230000020FE4908608020FD4948610861800067
:1012400008614010086140004861EF20F7490860DC
:101250008020F74948610861800008612B20FFF772
:10126000DDFD4FF48070F2490861400048610020C4
:10127000EE4908608020EE494861086180000861FD
:1012800040100861400048610020E8490860802063
:10129000E74948610861800008614010086140002A
:1012A00048610120E14908608020E1494861086106
:1012B0008000086140100861400048613F20DB4920
:1012C00008608020DA49486108618000086131E0E7
:1012D000082D1CD2DFE805F004070A0D0F121518BF
:1012E00044F0300413E044F0100410E044F0200413
:1012F0000DE000BF0BE044F0380408E044F028049F
:1013000005E044F0180402E044F0080400BF00BF08
:10131000C848008848F68911884204D1112646F24F
:101320004000044302E0032644F480542146304642
:10133000FFF7B3FD70BD70B504460D462946204643
:101340000DF024FBFFF7C5FD4FF48070B84908612C
:1013500040004861B8480088B44908608020B4491A
:10136000486108618000086170BD70B504460025C1
:10137000002108460DF00AFBFFF7ABFD00BF0DE0B2
:101380004FF48070AA49086140004861A748046092
:10139000802048610861800008616D1CB5F5963FAA
:1013A000EED370BD08B50121192002F0FDFC01212A
:1013B000A24802F0EEFA4FF4F860ADF800001020F9
:1013C0008DF8030003208DF802006946984802F06A
:1013D0000FFA4FF4F861964802F0B7FA4FF6FF7033
:1013E000ADF80000694691480C3802F001FA4FF65A
:1013F000FF718E480C3802F0A8FA322001F0A9FFE4
:1014000001210020FFF749FD322001F0A2FF00205A
:10141000FFF757FD874908800846008828B108462D
:1014200000884FF6FF7188421BD1D320FFF7F6FCEE
:10143000FFF702FDFFF700FDFFF7FEFC00F0BF0025
:101440007C490880084600884FF6FF7101EA0020B9
:1014500078490880FFF7F0FC764909880843754908
:1014600008807448018876A00DF01AF97148008848
:1014700049F2413188427DD1CF20FFF7CFFC4FF4B4
:1014800080706B490861400048610020674908602E
:101490008020674948610861800008614010086148
:1014A00040004861C120614908608020604948616E
:1014B00008618000086140100861400048613020E8
:1014C0005A49086080205A494861086180000861D3
:1014D000ED20FFF7A3FC4FF48070554908614000F0
:1014E0004861642051490860802051494861086181
:1014F00080000861401008614000486103204B49AA
:10150000086080204A4948610861800008614010F5
:101510000861400048611220444908608020444925
:10152000486108618000086140100861400048611E
:1015300081203E49086080203D4948610861800063
:101540000861E820FFF76AFC4FF4807038490861B1
:101550004000486185203549086080203449486151
:101560000861800008614010086140004861102057
:101570002E4900E08AE3086080202D494861086117
:101580008000086140100861400048617A202749C6
:101590000860802026494861086180000861CB20EE
:1015A000FFF73CFC4FF4807021490861400048611E
:1015B00039201E49086080201D494861086180006B
:1015C000086140100861400048612C2017490860FC
:1015D0008020174948610861800008614010086157
:1015E000400048610020114908608020104948618E
:1015F00008618000086140100861400048613420A3
:101600000A49086080200A49486108618000086131
:1016100040100861400048610220044908608020B1
:101620000349486108618000086111E00C0C014029
:10163000001001401E0000201A00002000023000AF
:10164000204C43442049443A25780D0A000000000C
:10165000F720FFF7E3FB4FF48070FE49086140007C
:1016600048612020FC4908608020FA4948610861EF
:1016700080000861EA20FFF7D1FB4FF48070F54944
:101680000861400048610020F34908608020F1496A
:1016900048610861800008614010086140004861AD
:1016A0000020ED4908608020EA4948610861800017
:1016B0000861C020FFF7B2FB4FF48070E549086174
:1016C000400048611B20E44908608020E1494861EE
:1016D000086180000861C120FFF7A0FB4FF4807013
:1016E000DC490861400048610120DB490860802036
:1016F000D8494861086180000861C520FFF78EFB6A
:101700004FF48070D3490861400048613020D249CD
:1017100008608020CF49486108618000086140105E
:101720000861400048613020CB4908608020C949E9
:101730004861086180000861C720FFF76FFB4FF424
:101740008070C449086140004861B720C249086000
:101750008020C04948610861800008613620FFF799
:101760005DFB4FF48070BB49086140004861482030
:10177000B94908608020B749486108618000086164
:101780003A20FFF74BFB4FF48070B24908614000EC
:1017900048615520B04908608020AE494861086121
:1017A00080000861B120FFF739FB4FF48070A94930
:1017B0000861400048610020A74908608020A549D1
:1017C000486108618000086140100861400048617C
:1017D0001A20A149086080209E4948610861800064
:1017E0000861B620FFF71AFB4FF480709949086131
:1017F000400048610A209849086080209549486166
:101800000861800008614010086140004861A22022
:101810009149086080208F49486108618000086113
:10182000F220FFF7FBFA4FF480708A49086140000C
:101830004861002088490860802086494861086125
:10184000800008612620FFF7E9FA4FF48070814993
:1018500008614000486101207F49086080207D497F
:101860004861086180000861E020FFF7D7FA4FF473
:10187000807078490861400048610F20764908600F
:101880008020744948610861800008614010086147
:10189000400048612A207049086080206D494861F5
:1018A00008618000086140100861400048612820FC
:1018B00069490860802067494861086180000861C3
:1018C000401008614000486108206349086080209A
:1018D000604948610861800008614010086140006B
:1018E00048610E205C49086080205A4948610861BF
:1018F0008000086140100861400048610820564996
:1019000008608020534948610861800008614010E8
:1019100008614000486154204F49086080204D49CB
:10192000486108618000086140100861400048611A
:10193000A920494908608020464948610861800023
:101940000861401008614000486143204249086036
:1019500080204049486108618000086140100861AA
:10196000400048610A203C490860802039494861AC
:1019700008618000086140100861400048610F2044
:10198000354908608020334948610861800008615A
:10199000401008614000486100202F490860802005
:1019A0002C494861086180000861401008614000CE
:1019B0004861002028490860802026494861086164
:1019C0008000086140100861400048610020224901
:1019D000086080201F49486108618000086140104C
:1019E00008614000486100201B49086080201949B7
:1019F0004861086180000861E120FFF70FFA4FF4A9
:101A00008070144908614000486100201249086054
:101A10008020104948610861800008614010086119
:101A20004000486115200C49086080200949486140
:101A3000086180000861401008614000486117207B
:101A400005490860802003494861086180000861F9
:101A5000401003E0001001400C0C01400861400000
:101A600048610720F84908608020F849486108610A
:101A70008000086140100861400048611120F2496F
:101A800008608020F14948610861800008614010C9
:101A90000861400048610620EB4908608020EB495E
:101AA0004861086180000861401008614000486199
:101AB0002B20E54908608020E449486108618000E6
:101AC000086140100861400048615620DE49086006
:101AD0008020DE494861086180000861401008618B
:101AE000400048613C20D84908608020D7494861BF
:101AF00008618000086140100861400048610520CD
:101B0000D14908608020D14948610861800008619E
:101B100040100861400048611020CB4908608020D7
:101B2000CA494861086180000861401008614000AE
:101B300048610F20C44908608020C4494861086199
:101B40008000086140100861400048613F20BE49A4
:101B500008608020BD49486108618000086140102C
:101B60000861400048613F20B74908608020B749BC
:101B700048610861800008614010086140004861C8
:101B80000F20B14908608020B04948610861800099
:101B900008612B20FFF742F94FF48070AB490861D0
:101BA000400048610020A84908608020A74948619A
:101BB0000861800008614010086140004861002011
:101BC000A14908608020A14948610861800008613E
:101BD000401008614000486101209B490860802056
:101BE0009A4948610861800008614010086140001E
:101BF00048613F2094490860802094494861086109
:101C0000800008612A20FFF709F94FF480708F499E
:101C100008614000486100208B49086080208B49A2
:101C20004861086180000861401008614000486117
:101C3000002085490860802084494861086180004F
:101C40000861401008614000486100207E4908603A
:101C500080207E4948610861800008614010086169
:101C600040004861EF20784908608020774948614A
:101C70000861800008611120FFF7D0F8782001F09A
:101C800068FB2920FFF7CAF801F094B87048008873
:101C900049F2253188427DD147F6F001E520FFF772
:101CA000FCF84FF480710120FFF7F7F84FF4E06182
:101CB0000220FFF7F2F841F230010320FFF7EDF8C0
:101CC00000210420FFF7E9F840F202210820FFF785
:101CD000E4F800210920FFF7E0F800210A20FFF7CF
:101CE000DCF800210C20FFF7D8F800210D20FFF7C9
:101CF000D4F800210F20FFF7D0F800211020FFF7C3
:101D0000CCF807211120FFF7C8F800211220FFF7B7
:101D1000C4F800211320FFF7C0F800210720FFF7C7
:101D2000BCF841F290611020FFF7B7F840F227218C
:101D30001120FFF7B2F89D211220FFF7AEF84FF403
:101D4000C8511320FFF7A9F825212920FFF7A5F88E
:101D50000D212B20FFF7A1F807213020FFF79DF878
:101D600040F203313120FFF798F803213220FFF7CA
:101D700094F840F206213520FFF78FF8082136202D
:101D8000FFF78BF840F206413720FFF786F84FF453
:101D9000417100E05EE03820FFF77FF8072139202D
:101DA000FFF77BF840F202613C20FFF776F808214C
:101DB0003D20FFF772F800215020FFF76EF8EF2169
:101DC0005120FFF76AF800215220FFF766F840F231
:101DD0003F115320FFF761F84FF427416020FFF7D0
:101DE0005CF801216120FFF758F800216A20FFF715
:101DF00054F800218020FFF750F800218120FFF7E0
:101E00004CF800218220FFF748F800218320FFF7DB
:101E100044F800218420FFF740F800218520FFF7D7
:101E20003CF810219020FFF738F84FF4C061922061
:101E3000FFF733F840F233110720FFF72EF8222185
:101E40000020FFF72AF81FE70C0C014000100140AA
:101E50001E000020FE48008849F2283188427DD1CA
:101E60001021E720FFF719F801210020FFF715F8EE
:101E70004FF480710120FFF710F84FF4E061022069
:101E8000FFF70BF841F230010320FFF706F80021BD
:101E90000420FFF702F840F207210820FEF7FDFFBB
:101EA00000210920FEF7F9FF00210A20FEF7F5FFC7
:101EB00001210C20FEF7F1FF00210D20FEF7EDFFC0
:101EC00000210F20FEF7E9FF00211020FEF7E5FFBB
:101ED00007211120FEF7E1FF00211220FEF7DDFFB0
:101EE00000211320FEF7D9FF322001F032FA41F22F
:101EF00090511020FEF7D1FF40F227211120FEF76C
:101F0000CCFF322001F025FA9C211220FEF7C5FFFC
:101F1000322001F01EFA4FF4C8511320FEF7BDFF26
:101F200023212920FEF7B9FF0E212B20FEF7B5FF54
:101F3000322001F00EFA00212020FEF7AEFF40F221
:101F40003F112120FEF7A9FF322001F002FA0721FC
:101F50003020FEF7A2FF40F2077100E087E0312059
:101F6000FEF79BFF06213220FEF797FF40F2047137
:101F70003520FEF792FF41F604713620FEF78DFF03
:101F800004213720FEF789FF00213820FEF785FF66
:101F900040F206713920FEF780FF40F201713C20CB
:101FA000FEF77BFF0F213D20FEF777FF322001F087
:101FB000D0F900215020FEF770FFEF215120FEF7ED
:101FC0006CFF00215220FEF768FF40F23F115320C2
:101FD000FEF763FF4FF427416020FEF75EFF01210B
:101FE0006120FEF75AFF00216A20FEF756FF00210C
:101FF0008020FEF752FF00218120FEF74EFF0021D6
:102000008220FEF74AFF00218320FEF746FF0021D1
:102010008420FEF742FF00218520FEF73EFF1021BD
:102020009020FEF73AFF00219220FEF736FF0321B1
:102030009320FEF732FF4FF488719520FEF72DFFB5
:1020400000219720FEF729FF00219820FEF725FFA9
:1020500040F233110720FEF720FF00212020FEF779
:102060001CFF40F23F112120FEF717FF0CE67848D5
:10207000008849F22031884204D075480088B0F5C4
:10208000134F7DD100210846FEF707FF4FF4807102
:102090000120FEF702FF4FF4E0610220FEF7FDFE93
:1020A00041F230010320FEF7F8FE00210420FEF784
:1020B000F4FE40F202210820FEF7EFFE0021092085
:1020C000FEF7EBFE00210A20FEF7E7FE01210C20BF
:1020D000FEF7E3FE00210D20FEF7DFFE00210F20BA
:1020E000FEF7DBFE322001F034F940F20111072047
:1020F000FEF7D3FE322001F02CF94FF48651102068
:10210000FEF7CBFE07211120FEF7C7FE4FF48871C2
:102110001220FEF7C2FE4FF430611320FEF7BDFE21
:1021200000212920FEF7B9FE44F210012B20FEF712
:10213000B4FE00215020FEF7B0FEEF215120FEF743
:10214000ACFE00215220FEF7A8FE40F23F115320C2
:10215000FEF7A3FE4FF41C516020FEF79EFE012106
:102160006120FEF79AFE00216A20FEF796FE00210C
:102170008020FEF792FE00218120FEF78EFE00E017
:102180002EE000218220FEF788FE00218320FEF74A
:1021900084FE00218420FEF780FE00218520FEF7CA
:1021A0007CFE10219020FEF778FE00219220FEF7A1
:1021B00074FE01219320FEF770FE4FF48871952084
:1021C000FEF76BFE00219720FEF767FE00219820A6
:1021D000FEF763FE40F273110720FEF75EFE53E543
:1021E0001B48008845F2084188427DD14FF4807138
:1021F0000120FEF752FE4FF4E0610220FEF74DFE93
:1022000041F230010320FEF748FE00210420FEF7D2
:1022100044FE40F207210820FEF73FFE002109207E
:10222000FEF73BFE00210A20FEF737FE00210C20BE
:10223000FEF733FE00210D20FEF72FFE00210F20B8
:10224000FEF72BFE142001F084F841F2B06101E0AA
:102250001E0000201020FEF720FE01211120FEF7B5
:102260001CFE01211720FEF718FE4FF49C7112206E
:10227000FEF713FE4FF400611320FEF70EFE092156
:102280002920FEF70AFE09212A20FEF706FE00217A
:10229000A420FEF702FE00215020FEF7FEFDEF21F4
:1022A0005120FEF7FAFD00215220FEF7F6FD40F224
:1022B0003F115320FEF7F1FD4FF41C516020FEF753
:1022C000ECFD01216120FEF7E8FD00216A20FEF708
:1022D000E4FD00218020FEF7E0FD00218120FEF7D3
:1022E000DCFD0021822000E027E0FEF7D6FD002182
:1022F0008320FEF7D2FD00218420FEF7CEFD0021D1
:102300008520FEF7CAFD13219020FEF7C6FD0021AF
:102310009220FEF7C2FD03219320FEF7BEFD4FF48D
:1023200088719520FEF7B9FD40F273110720FEF782
:10233000B4FD322001F00DF8A6E4FE48008841F219
:10234000055188427ED100210720FEF7A6FD3220EC
:1023500000F0FFFF4FF48E711220FEF79EFD012169
:10236000A420FEF79AFD0F210820FEF796FD082114
:102370000A20FEF792FD08210D20FEF78EFD40F2A7
:1023800007713020FEF789FD07213120FEF785FD1A
:1023900040F203613220FEF780FD4FF4E06133200C
:1023A000FEF77BFD40F202213420FEF776FD02218C
:1023B0003520FEF772FD41F60F713620FEF76DFDF8
:1023C00040F207713720FEF768FD00213820FEF744
:1023D00064FD00213920FEF760FD40F207713A20CC
:1023E000FEF75BFD00213B20FEF757FD07213C2057
:1023F000FEF753FD00213D20FEF74FFD322000F097
:10240000A8FF01210720FEF748FD01211720FEF754
:1024100044FD322000F09DFF4FF4BD511020FEF727
:102420003CFD40F217211120FEF737FD4FF48F716C
:102430001220FEF732FD4FF470611320FEF72DFDE0
:10244000002100E094E02A20FEF727FD0A21292040
:10245000FEF723FD4FF49F711220FEF71EFD0021B1
:102460005020FEF71AFDEF215120FEF716FD002146
:102470005220FEF712FD40F23F115320FEF70DFDF2
:102480004FF41C516020FEF708FD01216120FEF78A
:1024900004FD00216A20FEF700FD00218020FEF7E8
:1024A000FCFC00218120FEF7F8FC00218220FEF7D1
:1024B000F4FC00218320FEF7F0FC00218420FEF7CD
:1024C000ECFC00218520FEF7E8FC13219020FEF7AC
:1024D000E4FC4FF440719220FEF7DFFC05219320CD
:1024E000FEF7DBFC00219520FEF7D7FC00219720AA
:1024F000FEF7D3FC00219820FEF7CFFC4FF480714B
:102500000120FEF7CAFC4FF4E0610220FEF7C5FC93
:1025100041F230010320FEF7C0FC00210420FEF749
:10252000BCFC00210C20FEF7B8FC00210F20FEF7B8
:10253000B4FC00212020FEF7B0FC00212120FEF792
:10254000ACFC21210720FEF7A8FC142000F001FFBD
:1025500061210720FEF7A1FC142000F0FAFE40F2F2
:1025600073110720FEF799FC142000F0F2FE6AE4D4
:10257000704800884BF2055188427CD10021084602
:10258000FEF78BFC00210846FEF787FC0021084679
:10259000FEF783FC00210846FEF77FFC0121A42002
:1025A000FEF77BFC142000F0D4FE4FF41C51602099
:1025B000FEF773FC40F202210820FEF76EFC4FF498
:1025C00005713020FEF769FC43F215713120FEF7EA
:1025D00064FC40F204613220FEF75FFC40F61661B5
:1025E0003320FEF75AFC42F211213420FEF755FC4D
:1025F0004FF4A8513520FEF750FC48F20751362021
:10260000FEF74BFC41F207413720FEF746FC41F252
:1026100003413820FEF741FC20213920FEF73DFC24
:102620001A219020FEF739FC00211020FEF735FC1E
:1026300007211120FEF731FC00211220FEF72DFCAE
:1026400000211320FEF729FC142000F082FE4FF435
:10265000E6611020FEF721FC40F237111120FEF751
:102660001CFC142000F075FE4FF4DC711220FEF704
:1026700014FC142000E088E000F06BFE4FF4706161
:102680001320FEF70AFC80212A20FEF706FC4821D1
:102690002920FEF702FC142000F05BFE4FF480714D
:1026A0000120FEF7FAFB4FF4E0610220FEF7F5FB94
:1026B00041F230210320FEF7F0FB40F20221082016
:1026C000FEF7EBFB00210A20FEF7E7FB00210C20C0
:1026D000FEF7E3FB00210D20FEF7DFFB30210E208B
:1026E000FEF7DBFB00215020FEF7D7FBEF21512046
:1026F000FEF7D3FB00215220FEF7CFFB40F23F1143
:102700005320FEF7CAFB4FF41C516020FEF7C5FBB7
:1027100001216120FEF7C1FB00216A20FEF7BDFB0D
:1027200011219020FEF7B9FB4FF4C0619220FEF713
:10273000B4FB01E01E00002040F202419320FEF7AE
:10274000ACFB02219420FEF7A8FB142000F001FE50
:1027500001210720FEF7A1FB142000F0FAFD612102
:102760000720FEF79AFB40F273110720FEF795FB56
:1027700000212020FEF791FB00212120FEF78DFB98
:1027800022210020FEF789FB14E3FE4800884CF26A
:10279000055188427ED100210846FEF77EFB0021CC
:1027A0000846FEF77AFB142000F0D3FD002108460E
:1027B000FEF773FB00210846FEF76FFB0021084679
:1027C000FEF76BFB00210846FEF767FB0121A42002
:1027D000FEF763FB142000F0BCFD4FF41C51602099
:1027E000FEF75BFB40F606010820FEF756FB40F2C1
:1027F00003713020FEF751FB01213120FEF74DFB24
:1028000004213220FEF749FB4FF481713320FEF79B
:1028100044FB4FF440713420FEF73FFB40F20311BC
:102820003520FEF73AFB1F213620FEF736FB40F23B
:1028300003713720FEF731FB01213820FEF72DFB15
:1028400004213920FEF729FB15219020FEF725FBF6
:102850004FF482611020FEF720FB40F24721112047
:10286000FEF71BFB4FF4DE711220FEF716FB4FF450
:1028700060611320FEF711FB782000F06AFD4FF431
:1028800080710120FEF709FB4FF400710220FEF772
:1028900004FB00E050E041F230010320FEF7FDFAB6
:1028A00008210A20FEF7F9FA00210C20FEF7F5FABC
:1028B00020210E20FEF7F1FA00210F20FEF7EDFA9D
:1028C00000212020FEF7E9FA00212120FEF7E5FA99
:1028D0003D212A20FEF7E1FA142000F03AFD2D21D7
:1028E0002920FEF7DAFA00215020FEF7D6FA4DF241
:1028F000EF015120FEF7D1FA00215220FEF7CDFA68
:1029000040F23F115320FEF7C8FA00216120FEF784
:10291000C4FA00216A20FEF7C0FA4FF440719220F9
:10292000FEF7BBFA05219320FEF7B7FA4FF480714A
:102930000720FEF7B2FA3DE29248008848F6891176
:1029400088427DD101210020FEF7A7FA4AF6A401B2
:102950000320FEF7A2FA00210C20FEF79EFA40F6B3
:102960000C010D20FEF799FA4FF42C510E20FEF7C2
:1029700094FAB0211E20FEF790FA42F63F31012072
:10298000FEF78BFA4FF4C0610220FEF786FA0021B1
:102990001020FEF782FA46F270011120FEF77DFA50
:1029A00000210520FEF779FA00210620FEF775FACE
:1029B0004EF61C711620FEF770FA03211720FEF761
:1029C0006CFA40F233210720FEF767FA00210B2052
:1029D000FEF763FA00210F20FEF75FFA0021412085
:1029E000FEF75BFA00214220FEF757FA002148204B
:1029F000FEF753FA40F23F114920FEF74EFA00214C
:102A00004A20FEF74AFA00214B20FEF746FA4FF41F
:102A10006F414420FEF741FA00214520FEF73DFAC0
:102A200040F23F114620FEF738FA40F2077130209D
:102A3000FEF733FA4FF401713120FEF72EFA00E071
:102A40003DE04FF401713220FEF727FA40F20251C7
:102A50003320FEF722FA40F207513420FEF71DFA28
:102A60004FF401713520FEF718FA4FF4017136204A
:102A7000FEF713FA40F202513720FEF70EFA40F249
:102A800002313A20FEF709FA40F202313B20FEF70C
:102A900004FA00212320FEF700FA00212420FEF78B
:102AA000FCF94FF400412520FEF7F7F900214F20F3
:102AB000FEF7F3F900214E20FEF7EFF97AE13148F5
:102AC000008844F2315188427DD101210020FEF777
:102AD000E4F90A2000F03DFC41F228611020FEF7E5
:102AE000DCF90E211220FEF7D8F940F63921132027
:102AF000FEF7D3F90A2000F02CFC40211120FEF74C
:102B0000CCF950211520FEF7C8F90A2000F021FC6D
:102B10001E211220FEF7C1F90A2000F01AFC4FF422
:102B2000B1511020FEF7B9F942F639211320FEF712
:102B3000B4F90A2000F00DFC4FF480710120FEF77B
:102B4000ACF94FF440710220FEF7A7F941F23001D1
:102B50000320FEF7A2F940F202210820FEF79DF9BA
:102B600008210A20FEF799F900213020FEF795F997
:102B700040F202413120FEF790F94FF48371322088
:102B800002E000001E000020FEF787F940F203512A
:102B90003320FEF782F94FF482713420FEF77DF97D
:102BA00040F201313520FEF778F940F20771362006
:102BB000FEF773F940F205313720FEF76EF94FF456
:102BC0000271382000E040E0FEF767F940F60B7133
:102BD0003920FEF762F902214120FEF75EF94FF439
:102BE0001C516020FEF759F901216120FEF755F9CB
:102BF0004FF404719020FEF750F94FF48571922044
:102C0000FEF74BF904219320FEF747F94FF480714A
:102C1000A020FEF742F901210720FEF73EF921210D
:102C20000720FEF73AF923210720FEF736F9332172
:102C30000720FEF732F940F233110720FEF72DF995
:102C40000021A020FEF729F9B4E0FA48008844F2F8
:102C500035518842F8D130211520FEF71EF9102198
:102C60009A20FEF71AF920211120FEF716F943F2F7
:102C700028411020FEF711F902211220FEF70DF96C
:102C800041F238011320FEF708F9282000F061FB1B
:102C900012210846FEF701F9282000F05AFB43F202
:102CA00020411020FEF7F9F843F238011320FEF717
:102CB000F4F8462000F04DFB00213020FEF7EDF83F
:102CC00040F202413120FEF7E8F840F207313220AD
:102CD000FEF7E3F84FF441713320FEF7DEF80421EC
:102CE0003420FEF7DAF840F201413520FEF7D5F83E
:102CF00040F207713620FEF7D0F840F20531372058
:102D0000FEF7CBF84FF4C2613820FEF7C6F84FF457
:102D1000C2613920FEF7C1F84FF480710120FEF73F
:102D2000BCF84FF440710220FEF7B7F841F23001D1
:102D30000320FEF7B2F840F608010820FEF7ADF8D0
:102D400008210A20FEF7A9F84FF41C516020FEF775
:102D5000A4F801216120FEF7A0F84FF49F719020A4
:102D6000FEF79BF84FF480719220FEF796F84FF42F
:102D700080719320FEF791F84FF44051A020FEF7A8
:102D80008CF81021A320FEF788F801210720FEF718
:102D900084F821210720FEF780F823210720FEF781
:102DA0007CF833210720FEF778F840F23311072032
:102DB000FEF773F80020FEF766F901209E490860CF
:102DC0004FF6FF70FEF7D1FA08BD2DE9F05F05461A
:102DD0000E4617469846DDF828A04FF0000B00205D
:102DE000FEF751F9781B401C1FFA80FB34461EE0A9
:102DF000214628460BF0CAFDFEF76BF84FF000099C
:102E000011E04FF480708D490861400048618C48A2
:102E1000C0F800A08020486108618000086109F1C5
:102E200001001FFA80F9D945EBDB601C84B24445F0
:102E3000DEDD0020FEF727F9BDE8F09F2DE9FF4F0A
:102E400085B081468A460020049003900798A0EB45
:102E500009050898A0EB0A06CDF80890CDF804A063
:102E6000002D01DD012705E00DB9002702E04FF03C
:102E7000FF376D42002E02DD4FF0010806E016B963
:102E80004FF0000802E04FF0FF387642B54201DD16
:102E90002C4600E034464FF0000B21E0019A91B23D
:102EA000029A90B2FEF747FA0498284404900398D7
:102EB000304403900498A04205DD0498001B049060
:102EC0000298384402900398A04205DD0398001B45
:102ED00003900198404401900BF101001FFA80FB20
:102EE000601C8345DADD09B0BDE8F08F2DE9F041C3
:102EF00004460D4616461F462B46324629462046B6
:102F0000FFF79CFF3B46224629462046FFF796FFE7
:102F10003B46324639462046FFF790FF3B46324655
:102F200029463046FFF78AFFBDE8F0812DE9F047DA
:102F300006460F469046002445460320A0EB48096C
:102F400048E03A1B91B2721B90B2FEF7F4F93A1BBB
:102F500091B2721990B2FEF7EEF97A1991B2321B62
:102F600090B2FEF7E8F93A1B91B2721B90B2FEF7ED
:102F7000E2F97A1B91B2321B90B2FEF7DCF93A19F2
:102F800091B2721990B2FEF7D6F97A1B91B232194A
:102F900090B2FEF7D0F97A1991B2321990B2FEF7D9
:102FA000CAF93A1991B2721B90B2FEF7C4F9641CC7
:102FB000B9F1000F03DAA000801D814404E0601B1A
:102FC00080000A3081446D1E7A1991B2321990B294
:102FD000FEF7B1F9AC42B4DDBDE8F0872DE9F84F5A
:102FE0000746894616461D46BB461648008800908F
:102FF000E82F02DCB9F59C7F01DDBDE8F88FA6F172
:103000002000C6B20A98002848D1002443E00C2DC5
:1030100007D106EB46000C4901EB800010F804A034
:1030200004E00A4800EB061010F804A04FF0000876
:1030300025E000001E000020A801224200100140EF
:103040000C0C01401A00002058EA0008CCEE0008E1
:103050000AF0010018B17F490098088003E07E481B
:1030600000887C49088049463846FEF764F94FEAF3
:103070006A0A781C87B208F1010000F0FF0805EB2E
:10308000D571B8EB610FE3DB5F4609F101001FFA70
:1030900080F9601CC4B2AC42B9DB2DE0002429E009
:1030A0000C2D07D106EB46006C4901EB800010F8AF
:1030B00004A004E06A4800EB061010F804A04FF0EA
:1030C000000810E00AF0010038B109EB040291B2E7
:1030D00007EB080290B2FEF72EF94FEA6A0A08F1F0
:1030E000010000F0FF0805EBD571B8EB610FE9DBDB
:1030F000601CC4B2AC42D3DB56490098088000BFC4
:103100007BE710B50246012000E050430B1EA1F101
:103110000104E1B2F9D110BD2DE9FF4F81B007469E
:1031200091461E460E9D4FF0000A002439E0301BE8
:10313000401EC1B20A20FFF7E4FFB9FBF0F00A21FC
:10314000B0FBF1F201FB1208BAF1000F16D1701EAC
:10315000A04213DDB8F1000F0ED10020AB4605EB05
:10316000DB71491001FB0471009088B22B462022CC
:103170000299FFF733FF12E04FF0010A0020AB463F
:1031800005EBDB71491001FB0471009088B208F176
:103190003001CAB22B460299FFF720FF00BF601C26
:1031A000C4B2B442C3DB05B0BDE8F08F2DE9FF4FD8
:1031B00081B0074690461D46DDE90E6A00241EE0F8
:1031C000281B401EC1B20A20FFF79BFFB8FBF0F09E
:1031D0000A21B0FBF1F201FB1209B34606EBDB71E9
:1031E000491001FB047188B209F13001CAB23346BB
:1031F000CDF800A00299FFF7F1FE601CC4B2AC420A
:10320000DEDB05B0BDE8F08FF8B505460E46144686
:103210001BE0E82D03DD002506F1100086B2B6F5AF
:103220009C7F06DD0020054606464FF6FF70FEF740
:103230009CF8002000902278102331462846FFF7A2
:10324000CDFE05F1080085B2641C20780028E0D18D
:10325000F8BD00001A0000201C00002058EA0008F9
:10326000CCEE000808B5684603F062FE08BD08B55C
:10327000684603F0A7FE08BD38B504466A46082133
:1032800020460AF093F938BD10B54248007801286D
:1032900005D103F08FFD0AF015FC03F09CFD10BD75
:1032A00010B56FF0040000F096F93B4800683B4908
:1032B000B0FBF1F03A490870374800683749B0FB75
:1032C000F1F438480068C910B1FBF0F044433548C8
:1032D00000684FF47A71B1FBF0F0334908804FF089
:1032E000E020006940F002004FF0E021086108464C
:1032F0004461006940F00100086110BD2DE9F0470C
:10330000074600264FF0E020D0F8149024480078BB
:1033100007FB00F800BFFFF7A5FF4FF0E02085692D
:1033200011E04FF0E0208469AC420CD0AC4202D2F4
:10333000281B064403E0A9EB040028440644254664
:10334000464500D300E0ECE700BFFFF790FFBDE883
:10335000F08770B504460F480078A0B11348007894
:1033600088B911480088844206DB0F48008894FB26
:10337000F0F52846FFF780FF0B48008894FBF0F13A
:1033800000FB114084B24FF47A7104FB01F0FFF7A7
:10339000B5FF70BD710000200400002000127A000B
:1033A00020000020B0F6000822000020700000205D
:1033B000014600BF704700BF4B4A128802F040022E
:1033C000002AF9D0C2B2484B1B1D1A80704710B5B5
:1033D00086B00446012144F2050000F0E5FC4FF4FC
:1033E0000070ADF8140003208DF8160018208DF839
:1033F000170005A93D4800F0FBF94FF48060ADF8D7
:10340000140004208DF8170005A9384800F0F0F9E1
:1034100025208DF8000003208DF801008DF80200B2
:1034200001208DF80300684600F08BF8019400201D
:10343000ADF80800ADF80A00ADF80C00ADF81000CA
:103440000C20ADF80E0001A9274801F062FC012212
:1034500040F22551244801F0F4FC0121224801F0FA
:10346000E4FC06B010BD10B503F0A4FC40F22551F9
:103470001D4801F0CBFD10B31B4801F047FDC4B25D
:103480001B48007800F08000C8B91948007800F0A7
:10349000400060B10A2C03D000201549087020E0DC
:1034A0001348007840F080001149087019E00D2C95
:1034B00006D10F48007840F040000D49087010E038
:1034C0000B48007800F03F000A490C540848007887
:1034D000401C07490870084600783F2801DD00209D
:1034E000087003F078FC10BD00380140000801406E
:1034F000280000208415002009488047094800471B
:10350000FEE7FEE7FEE7FEE7FEE7FEE7FEE7FEE793
:10351000FEE7FEE704480549054A064B70470000F0
:1035200013090008ED000008F03D0020F0430020E2
:10353000F03F0020F03F002031490143314A116043
:10354000704770B5002100230F22C47804B32D4CBE
:10355000246804F4E064C4F5E064210AC1F10403C2
:10356000CA40447804FA03F18478144021430901E5
:10357000254C0678A155047804F01F050124AC40C1
:1035800005786D11AD0005F1E025C5F8004109E0B1
:10359000047804F01F050124AC401C4D0678761118
:1035A00045F8264070BD1A4A0A400243154B1B1FBE
:1035B0001A60704739B1134A121D12680243114B49
:1035C0001B1D1A6006E00F4A121D126882430D4B44
:1035D0001B1D1A607047042808D14FF0E0210969CB
:1035E00041F004014FF0E022116107E04FF0E021CB
:1035F000096921F004014FF0E022116170470000D9
:103600000000FA050CED00E000E400E080E100E0DD
:1036100080FFFF1F002044490860091D0860091D44
:103620000860091D086041483F491431086070472F
:1036300000213D498279002A3AD00A46126803687F
:103640009A430B461A600A1D126803689A430B1DC1
:103650001A60027911440A6803681A430A60324A00
:103660000832126803689A432F4B08331A601A1DF8
:10367000126803689A432C4B0C331A604279102A63
:103680000ED11A1F126803681A43274B08331A60B9
:103690001A1D126803681A43234B0C331A600DE09D
:1036A0002149427911440A6803681A430A6005E017
:1036B000027911440A6803689A430A60704700213E
:1036C000016001710C21417100218171704716491F
:1036D000103109680143144A1032116070470146E5
:1036E0000020114A143212680A400AB1012000E099
:1036F000002070470C4914310860704701460020D3
:103700000022094B1B6803EA0102074B14331B68B4
:103710000B4013B10AB1012000E0002070470249BC
:10372000143108607047000000040140FFFF0F00E3
:1037300010B50446CC48844208D10121042000F091
:103740004DFB0021042000F049FB46E0C7488442BD
:1037500008D10121082000F041FB0021082000F0E1
:103760003DFB3AE0C248844208D10121102000F01C
:1037700035FB0021102000F031FB2EE0BD488442D3
:1037800008D10121202000F029FB0021202000F099
:1037900025FB22E0B848844208D10121402000F0F6
:1037A0001DFB0021402000F019FB16E0B3488442C5
:1037B00008D10121802000F011FB0021802000F0C1
:1037C0000DFB0AE0AE48844207D10121801500F0CC
:1037D00005FB0021A01500F001FB10BD10B5012173
:1037E000084600F0FBFA0021012000F0F7FA10BDB6
:1037F0002DE9F04102460025002600200023002488
:10380000002791F803C00CF00F0591F803C00CF0ED
:10381000100CBCF1000F03D091F802C04CEA050572
:1038200091F800C0BCF1000F31D0146800202BE0EB
:103830004FF0010C0CFA00F3B1F800C00CEA0306DB
:103840009E4220D183004FF00F0C0CFA03F7BC43CB
:1038500005FA03FC4CEA040491F803C0BCF1280FFC
:1038600006D14FF0010C0CFA00FCC2F814C00AE0BB
:1038700091F803C0BCF1480F05D14FF0010C0CFAD0
:1038800000FCC2F810C0401C0828D1D31460B1F865
:1038900000C0BCF1FF0F34DD546800202EE000F1C1
:1038A000080C4FF0010808FA0CF3B1F800C00CEA5C
:1038B00003069E4221D183004FF00F0C0CFA03F750
:1038C000BC4305FA03FC4CEA040491F803C0BCF1C4
:1038D000280F05D100F1080C08FA0CF8C2F8148082
:1038E00091F803C0BCF1480F07D100F1080C4FF06C
:1038F000010808FA0CF8C2F81080401C0828CED342
:103900005460BDE8F0814FF6FF71018002218170A3
:103910000421C17070470246002093680B400BB130
:10392000012000E0002070470146886880B270479F
:1039300002460020D3680B400BB1012000E00020BC
:1039400070470146C86880B27047016170474161A5
:1039500070470AB1016100E041617047C160704782
:103960004FF480320A438261816182618269826997
:10397000704702460020434B18684FF6807318408A
:1039800040EA021008433F4B186070473E49C86147
:103990007047F0B50A46002300240021002500F0FE
:1039A0000046B6F1004F02D1364EF16901E0354EC6
:1039B0007168C0F3034583B200F44016B6F5401FAA
:1039C00008D121F070612F4E766826F070662D4F79
:1039D0007E6012E000F48016B6F5801F06D1032643
:1039E00006FA05F4A14341F0706106E0460D360188
:1039F00003FA06F6B14341F0706122B1460D36017B
:103A000003FA06F6314300F00046B6F1004F02D14A
:103A10001C4EF16101E01B4E7160F0BD30B500221B
:103A20008B071C0F0F2303FA04F2164B08338C107C
:103A300053F824309343134C08348D1044F8253048
:103A400023468C1053F824308C07240F00FA04F41A
:103A500023430C4C08348D1044F8253030BD0A49FE
:103A6000DC3108607047000000080140000C014094
:103A7000001001400014014000180140001C0140EA
:103A80000020014000000140000020420E49086073
:103A900070470D49486070470B49886070474AF687
:103AA000AA200949086070474CF6CC4006490860D6
:103AB000704701460020044AD2680A400AB101203A
:103AC00000E000207047000000300040DF48006840
:103AD00040F00100DD49086008464068DC490840C4
:103AE000DA49486008460068DA490840D749086062
:103AF0000846006820F4802008600846406820F4EA
:103B0000FE0048604FF41F0088607047CF49096885
:103B100021F48031CD4A11601146096821F48021D9
:103B20001160B0F5803F03D0B0F5802F0ED106E0D4
:103B3000C649096841F48031C44A116007E0C349AD
:103B4000096841F4A021C14A116000E000BF00BF34
:103B5000704710B501460022002300204A11012AB7
:103B600002D1BA4C236806E0022A02D1B74C236A7C
:103B700001E0B64C636A01F01F02012494401C402E
:103B80000CB1012000E0002010BD38B500200090ED
:103B90000024002500BF3120FFF7DBFF0546009819
:103BA000401C00900098B0F5A06F01D0002DF2D01D
:103BB0003120FFF7CEFF08B1012400E000242046A9
:103BC00038BD01460020A14A106820F0F80040EA04
:103BD000C10010607047A04908607047024600208D
:103BE0009A4B586820F47C1042EA01031843974B23
:103BF0005860704798490866704701460020934A0C
:103C0000506820F003000843506070478F484068B8
:103C100000F00C007047014600208C4A506820F0EC
:103C2000F00008435060704701460020874A506802
:103C300020F4E06008435060704701460020834A4A
:103C4000506820F4605040EAC1005060704729B1CC
:103C50007E4A527A02437D4B5A7204E07B4A527A82
:103C600082437A4B5A7270477B49D831086070475B
:103C700001460020754A506820F4404008435060D7
:103C800070470021714A20321170704A82F820106A
:103C9000012802D004280AD104E001216B4A203215
:103CA000117005E00521694A2032117000E000BF63
:103CB00000BF70476949086070476449096A014359
:103CC000624A11627047654944390860704730B5EF
:103CD00000210022002400235C4D6D6805F00C01DA
:103CE00021B1042905D0082923D105E05C4D0560E8
:103CF00022E05B4D05601FE0544D6D6805F47012C5
:103D0000524D6D6805F48034022505EB92421CB9D2
:103D1000544D554305600BE04C4D6D6805F400357E
:103D20001DB1504D5543056002E04D4D55430560B2
:103D300002E04B4D056000BF00BF444D6D6805F0CB
:103D4000F0010909484D6B5C0568DD4045603F4D59
:103D50006D6805F4E061090A434D6B5C4568DD4020
:103D600085603A4D6D6805F46051C90A3E4D6B5C43
:103D70004568DD40C560354D6D6805F44041890BEF
:103D80003A4D6B5CC568B5FBF3F5056130BD29B1F3
:103D90002E4A526902432D4B5A6104E02B4A526964
:103DA00082432A4B5A61704729B1284A92690243DB
:103DB000264B9A6104E0254A92698243234B9A611B
:103DC000704729B1214AD2690243204BDA6104E0ED
:103DD0001E4AD26982431D4BDA61704729B11B4AE2
:103DE000D2680243194BDA6004E0184AD268824371
:103DF000164BDA60704729B1144A12690243134B1B
:103E00001A6104E0114A12698243104B1A6170472B
:103E100012494039086070470F49C86470470B4920
:103E2000C87170470948406A40F08070074948628D
:103E3000704701460020054A92680A400AB10120F5
:103E400000E000207047014988727047001002406E
:103E50000000FFF8FFFFF6FE0000424280044242ED
:103E600000127A0000093D002900002039000020DE
:103E700010B50446FE48844208D10121C014FFF762
:103E8000ADFF0021E014FFF7A9FFC4E0B4F1804FBB
:103E900008D101210846FFF7AEFF00210120FFF7FE
:103EA000AAFFB8E0F348844208D101210220FFF7BD
:103EB000A2FF00210220FFF79EFFACE0EE48844203
:103EC00008D101210420FFF796FF00210420FFF70D
:103ED00092FFA0E0E948844208D101210820FFF7C1
:103EE0008AFF00210820FFF786FF94E0E44884421F
:103EF00008D101211020FFF77EFF00211020FFF7DD
:103F00007AFF88E0DF48844208D101212020FFF7B2
:103F100072FF00212020FFF76EFF7CE0DA48844228
:103F200008D101214014FFF759FF00216014FFF769
:103F300055FF70E0D548844209D10121C804FFF73C
:103F40004DFF00214FF40020FFF748FF63E0D04809
:103F5000844209D101210805FFF740FF00214FF4F9
:103F60008010FFF73BFF56E0CA48844209D1012187
:103F70004805FFF733FF00214FF40010FFF72EFF35
:103F800049E0C548844208D101214020FFF733FFB2
:103F900000214020FFF72FFF3DE0C048844208D1B8
:103FA00001218020FFF727FF00218020FFF723FF5A
:103FB00031E0BB48844208D101218015FFF71BFF87
:103FC0000021A015FFF717FF25E0B648844209D16C
:103FD00001210804FFF702FF00214FF48030FFF7B2
:103FE000FDFE18E0B048844209D101214804FFF7E2
:103FF000F5FE00214FF40030FFF7F0FE0BE0AB4878
:10400000844208D101218804FFF7E8FE00214FF423
:104010008020FFF7E3FE10BD00220288944B9842F7
:104020000ED0994B98420BD0B0F1804F08D0914BF5
:10403000984205D0904B984202D0904B984204D1C0
:104040004FF68F731A404B881A438D4B984207D016
:104050008C4B984204D04FF6FF431A40CB881A434A
:1040600002808B8883850B880385814B98420BD017
:10407000854B984208D08B4B984205D08A4B98428A
:1040800002D08A4B984201D10B7A038601238382A6
:10409000704770B5002400220023058C4FF6FE7691
:1040A00035400584028C8388048B4FF68F752C4035
:1040B000B51E2C400D882C43751E2A400D892A43BD
:1040C0004D882A436A4DA8420BD06F4DA84208D0B4
:1040D000744DA84205D0744DA84202D0734DA84239
:1040E00013D14FF6F7752A404D892A434FF6FB75D9
:1040F0002A408D882A434FF6FF652B404FF6FF5527
:104100002B408D892B43CD892B4383800483CD881D
:104110008586028470BD70B5002400220023058CC2
:104120004FF6EF7635400584028C8388048B48F681
:10413000FF752C404FF6FF452C400D884FF6FF765B
:1041400006EA05252C434FF6DF752A400D8906EA5D
:1041500005152A434D8806EA05152A43444DA84211
:1041600002D0494DA8421DD14FF67F752A404D8996
:104170004FF6FF7606EA05152A434FF6BF752A402B
:104180008D8806EA05152A434FF6FF352B404FF27E
:10419000FF752B408D8906EA85052B43CD8906EAFC
:1041A00085052B4383800483CD880587028470BDF9
:1041B00070B5002400220023058C4FF6FF663540C1
:1041C0000584028C8388848B4FF68F752C404FF6C4
:1041D000FC752C400D882C434FF6FF552A400D8965
:1041E0004FF6FF7606EA05252A434D8806EA05259F
:1041F0002A431F4DA84202D0234DA8421DD14FF2A1
:10420000FF752A404D894FF6FF7606EA05252A43B9
:104210004FF6FF352A408D8806EA05252A434EF6DB
:10422000FF752B404DF6FF752B408D8906EA05156D
:104230002B43CD8906EA05152B4383808483CD88E3
:104240008587028470BD70B5002200230024058C90
:104250004EF6FF7635400584038C8488828B48F6C1
:10426000FF752A404FF6FF452A400D8820E00000E8
:10427000002C01400004004000080040000C0040F9
:10428000001000400014004000340140004C014088
:10429000005001400054014000180040001C004044
:1042A000002000400040014000440140004801401F
:1042B0004FF6FF7606EA05252A434DF6FF752B409B
:1042C0000D8906EA05352B434D8806EA05352B4353
:1042D000FA4DA84202D0FA4DA84208D14BF6FF751C
:1042E0002C408D894FF6FF7606EA85152C43848095
:1042F0008283CD88A0F84050038470BD828B4FF23A
:10430000FF331A408283828B4FF6FF7303EA012347
:104310001A4382837047F0B50C46154600220021EF
:104320000026078C4EF6FF7C07EA0C070784828B79
:10433000018C4FF6FF7707EA043640F6FF473A4014
:104340004FF6FF7707EA05273A434FF6FF7707EA6C
:1043500003373A43D94FB8420ED0D94FB8420BD0A9
:10436000B0F1804F08D0D74FB84205D0D64FB842F1
:1043700002D0D64FB84206D14DF6FF77394046F409
:104380008057394305E047F6FF57394044F48057DA
:10439000394382830184F0BD828B4FF6F3731A4058
:1043A0008283828B0A4382837047F0B50C461546A0
:1043B000002200210026078C4FF6FF6C07EA0C074D
:1043C0000784828B018C4FF6FF7707EA04264FF6AD
:1043D0000C773A404FF6FF7707EA03172F433A432B
:1043E000B64FB8420ED0B64FB8420BD0B0F1804FA6
:1043F00008D0B44FB84205D0B34FB84202D0B34F43
:10440000B84206D14FF6FF57394046F4807739431A
:1044100005E04FF2FF57394044F4807739438283F7
:104420000184F0BD028B4FF2FF331A400283028BEE
:104430004FF6FF7303EA01231A4302837047F0B576
:104440000C461546002200210026078C4FF6EF7C13
:1044500007EA0C070784028B018C4FF6FF7707EA07
:10446000041640F6FF473A404FF6FF7707EA033756
:104470003A434FF6FF7707EA05273A438F4FB84292
:104480000ED08F4FB8420BD0B0F1804F08D08D4F77
:10449000B84205D08C4FB84202D08C4FB84206D1FA
:1044A0004FF6DF77394046F01007394305E04FF605
:1044B0005F77394044F01007394302830184F0BD2F
:1044C000028B4FF6F3731A400283028B0A43028376
:1044D0007047F0B50C46154600220021068C4FF6B9
:1044E000FE773E400684028B018C4FF60C763240FC
:1044F0007E1C06EA03162E433243704EB0420ED0A5
:104500006F4EB0420BD0B0F1804F08D06D4EB0422C
:1045100005D06D4EB04202D06C4EB04206D14FF67F
:10452000FD76314044F00106314305E04FF6F57663
:10453000314044F00106314302830184F0BD70B57F
:1045400005460C465D4885420ED05D4885420BD03D
:10455000B5F1804F08D05B48854205D05A48854266
:1045600002D05A48854200D100E000BF208850B9EF
:104570002389A28861882846FFF7ABFFE188284697
:10458000FFF79EFF25E0208804280AD12389A2880E
:1045900061882846FFF753FFE1882846FFF742FF6E
:1045A00017E0208808280AD12389A2886188284634
:1045B000FFF7FBFEE1882846FFF7EEFE09E02389BE
:1045C000A28861882846FFF7A6FEE1882846FFF703
:1045D00095FE70BD2DE9F04105460C4600260127E9
:1045E000608808B9022600E00026A088012801D1D1
:1045F000022700E001272088A0B92389A2886188CA
:104600002846FFF766FFE1882846FFF759FF238910
:104610003A4631462846FFF712FFE1882846FFF761
:1046200001FF13E02389A28861882846FFF707FF6E
:10463000E1882846FFF7F6FE23893A4631462846A8
:10464000FFF747FFE1882846FFF73AFFBDE8F08112
:104650000A884B881A438B881A43CB881A430B89E4
:104660001A434B891A438B891A43A0F84420704798
:104670004FF6FF71818000210180C180418001726D
:1046800070470021018041808180C180018141818A
:104690008181C18170470021018041800121818099
:1046A0000021C1800181704700210180418081800B
:1046B000C18001814181818170470000002C01404F
:1046C000003401400004004000080040000C00409D
:1046D00021B1028842F00102028004E002884FF614
:1046E000FE731A400280704731B1B0F8442042F4A2
:1046F0000042A0F8442005E0B0F84420C2F30E02C6
:10470000A0F8442070471AB183890B43838102E0EB
:1047100083898B43838170478182704741EA02031A
:10472000A0F8483070471AB183890B43838102E0B7
:1047300083898B438381704701894FF6F87211405A
:10474000018170470A46002101894FF68F73194095
:1047500011430181704730B504460D462946204675
:10476000FFF7F0FF208940F00700208130BD2DE9E0
:10477000F04104460D4616461F46602D06D13B46C5
:10478000012231462046FFF75AFE05E03B46012252
:1047900031462046FFF79DFE29462046FFF7D2FF0F
:1047A000208940F007002081BDE8F08130B50C463B
:1047B00000210189C9B24FF6FF7505EA03251543AB
:1047C00025432943018130BD2DE9F04105460E46C0
:1047D00017469846002443463A4631462846FFF796
:1047E000E5FF2C894FF6F870044044F007044FF6BB
:1047F0008F70044044F070042C81BDE8F081F0B566
:1048000004460D4616461F463B463246294620467C
:10481000FFF7CCFF208940F480402081F0BD018566
:10482000828270470A46002101884FF68F73194033
:10483000114301807047F0B50C4615461E46002115
:10484000002200230189028B038C4FF6F877394050
:1048500021434FF6FC473A4040F201173A434FF6E6
:10486000DD773B404FF6FF7707EA06172F433B43C0
:10487000018102830384F0BD0A460021018B4FF6BB
:104880008F7319401143018370470A460021018B41
:1048900048F6FF7319404FF6FF7303EA02231943EA
:1048A000018370470A460021818B4FF68F731940B0
:1048B0001143818370470A460021818B48F6FF73BC
:1048C00019404FF6FF7303EA0223194381837047AF
:1048D00021B1028842F08002028004E002884FF693
:1048E0007F731A400280704721B1828842F004022F
:1048F000828004E082884FF6FB731A408280704702
:1049000021B1828842F00802828004E082884FF65A
:10491000F7731A408280704721B1828842F0010209
:10492000828004E082884FF6FE731A4082807047CE
:104930000A460021018B4FF6F7731940114301839A
:1049400070470A460021018B4FF2FF7319404FF662
:10495000FF7303EA02231943018370470A460021CB
:10496000818B4FF6F77319401143818370470A46D4
:104970000021818B4FF2FF7319404FF6FF7303EA5A
:1049800002231943818370470A460021018B4FF6A9
:10499000FB7319401143018370470A460021018BC4
:1049A0004FF6FF3319404FF6FF7303EA0223194312
:1049B000018370470A460021818B4FF6FB73194033
:1049C0001143818370470A460021818B4FF6FF33E4
:1049D00019404FF6FF7303EA02231943818370479E
:1049E0000A460021018B4FF67F7319401143018362
:1049F00070470A460021018BC1F30E014FF6FF7389
:104A000003EA02231943018370470A460021818B80
:104A10004FF67F7319401143818370470A46002186
:104A2000818BC1F30E014FF6FF7303EA0223194392
:104A3000818370470A460021018C4FF6FD731940AF
:104A40001143018470470A460021018C4FF6F77329
:104A500019401143018470470A460021018C4FF62A
:104A6000DF7319404FF6FF7303EA02131943018401
:104A700070470A460021018C4FF67F7319404FF6AC
:104A8000FF7303EA02131943018470470A460021A9
:104A9000018C4FF6FF5319404FF6FF7303EA0223D0
:104AA0001943018470470A460021018C4FF2FF73BD
:104AB00019404FF6FF7303EA02231943018470473C
:104AC0000A460021018C4DF6FF7319404FF6FF7323
:104AD00003EA023319430184704730B500230124EF
:104AE0008C40A3B2048C9C430484048C02FA01F52C
:104AF000ADB22C43048430BD30B5002304248C4077
:104B0000A3B2048C9C430484048C02FA01F5ADB278
:104B10002C43048430BD70B50346002000241846A1
:104B2000183001258D40ACB21D8CA5431D8409B100
:104B3000082909D100EB6100056825F070050560C2
:104B40000568154305600EE00D1FC5F34E052844AA
:104B5000056825F4E045056005684FF6FF7606EA2E
:104B600002263543056070BD21B1028842F0020281
:104B7000028004E002884FF6FD731A4002807047FD
:104B800021B1028842F00402028004E002884FF65C
:104B9000FB731A400280704721B1828842F0800284
:104BA000828004E082884FF67F731A4082807047CB
:104BB00002884FF6F7731A40028002880A43028087
:104BC000704782884FF68F731A40828082880A432A
:104BD0008280704702894FF6F8731A400281028979
:104BE0000A430281704702894FF67F731A4002819F
:104BF00002890A430281704781847047818570472A
:104C0000818670470187704781877047A0F8401000
:104C1000704702884FF6FF431A40028002880A4319
:104C2000028070470146888E70470146088F7047A2
:104C30000146888F70470146B1F840007047014631
:104C4000888C70470146088D704702460020138A01
:104C50000B400BB1012000E000207047CA430282E4
:104C6000704730B50246002000230024158A05EA6B
:104C70000103958905EA010413B10CB1012000E09C
:104C8000002030BDCA4302827047000010B50446C0
:104C9000FB48844209D101218803FFF79FF80021D6
:104CA0004FF48040FFF79AF832E0F648844209D189
:104CB00001214804FFF79FF800214FF40030FFF76F
:104CC0009AF825E0F048844209D101218804FFF7D1
:104CD00092F800214FF48020FFF78DF818E0EB48A0
:104CE000844209D10121C804FFF785F800214FF45F
:104CF0000020FFF780F80BE0E548844208D101214D
:104D00000805FFF778F800214FF48010FFF773F8DB
:104D100010BD2DE9F04786B005460E460024A24698
:104D200000BFA1460027B08900B100BF2F462C8AE2
:104D30004CF6FF700440F08804432C82AC894EF698
:104D4000F3100440B0883189084371890843044353
:104D5000AC81AC8A4FF6FF400440B0890443AC827A
:104D600001A8FEF7B4FFC648874202D1DDF810A0C3
:104D700001E0DDF80CA0A88900F4004040B10AEB86
:104D8000CA0000EB0A1031684900B0FBF1F807E0F7
:104D90000AEBCA0000EB0A1031688900B0FBF1F899
:104DA0006420B8FBF0F004012009642101FB1089A4
:104DB000A88900F4004040B1322000EBC900B0FBEC
:104DC000F1F000F00700044308E0322000EB091086
:104DD0006421B0FBF1F000F00F0004432C8106B019
:104DE000BDE8F0874FF41651016000218180C18039
:104DF00001810C21418100218181704710B502465B
:104E00000020108A4FF2FF0318400B884C88234380
:104E10008C882343CC8823431843108210BD002183
:104E2000018041808180C180704721B1828942F434
:104E30000052828104E082894DF6FF731A4082811C
:104E40007047F0B50346002400260025002040F6F8
:104E50006A17B94200D100BF1846C1F3421401F0ED
:104E60001F06012707FA06F5012C01D10C3004E0DA
:104E7000022C01D1103000E014301AB107682F4322
:104E8000076002E00768AF430760F0BD1AB1838A8C
:104E90000B43838202E0838A8B4383827047028ABA
:104EA0004FF6F0731A400282028A0A430282704768
:104EB00082894FF2FF731A40828182890A4382817C
:104EC000704721B1828942F00202828104E0828926
:104ED0004FF6FD731A4082817047028A4FF6DF73E6
:104EE0001A400282028A0A430282704721B1028A72
:104EF00042F48042028204E0028A4BF6FF731A40B9
:104F000002827047C1F30802828070470146888898
:104F1000C0F308007047818941F001018181704729
:104F2000028BD2B20283028B42EA012202837047D3
:104F3000028B02F47F420283028B0A430283704792
:104F400021B1828A42F02002828204E0828A4FF6F6
:104F5000DF731A408282704721B1828A42F01002C8
:104F6000828204E0828A4FF6EF731A408282704791
:104F700021B1828A42F00802828204E0828A4FF6DE
:104F8000F7731A408282704721B1828942F400424D
:104F9000828103E08289C2F30E028281704721B1CF
:104FA000828A42F40062828204E0828A4FF2FF73B6
:104FB0001A4082827047828A4FF6FB731A408282BF
:104FC000828A0A438282704721B1828A42F00202B9
:104FD000828204E0828A4FF6FD731A408282704713
:104FE00002460020B1F5007F00D100BF13880B40BE
:104FF0000BB1012000E00020704701F40072B2F50F
:10500000007F00D100BFCA430280704770B50246DE
:10501000002400230025002040F66A16B14200D18A
:1050200000BFC1F3421501F01F03012606FA03F386
:10503000012D02D19689334006E0022D02D1168A55
:10504000334001E0968A33400C12012606FA04F43C
:105050001688344013B10CB1012000E0002070BD6F
:1050600010B50022002340F66A14A14200D100BF0F
:105070000A1201249440A3B2DC43048010BD000056
:10508000003801400044004000480040004C00400F
:105090000050004010B50121C802FEF7ACFE00210F
:1050A0004FF40060FEF7A7FE10BD0021194A1268F8
:1050B00022F4C0710143174A1160704708B50021FE
:1050C00000911449096821F07F01009100F07F01EF
:1050D000009A114300910F4A0099116008BD012008
:1050E0000D490860704700F07F010A4A121F1160E5
:1050F000704740F08001074A121F11607047054851
:10510000001D0068C0B2704700200249091D0860F8
:1051100070470000042C0040A480054200B585B013
:105120006846FEF7D4FD019805B000BD10B5FFF745
:10513000F5FF04461748006840F080701549086084
:105140000020154948600846006840F001000860EA
:10515000204600F0B6F810BD0F49486870472DE9A9
:10516000F0478246FFF7DAFF4FF0000980460B4A0E
:1051700000234046494609F01CFA064632460B46D3
:105180005046002109F015FA04460D4620462946EE
:10519000BDE8F087FCED00E0001000E040420F00A9
:1051A00010B5002400BF00BF00F052F9044600BF54
:1051B00000BF1021A14800F0D2FA00BF00BF204676
:1051C00000F04AF900BF00BF10BD10B5FFF7E8FFBF
:1051D00010BD10B500209A490860FFF7A7FF10BD69
:1051E00010B5FFF7F6FFFFF7F0FF10BD00BFFEE7B9
:1051F00070B505460C46002614B900BFFFF7F6FF50
:1052000015B90A20208070BD00BF00BF00F020F952
:10521000064600BF00BF10228849284600F056FF0E
:1052200000BF00BF304600F017F900BF00BF0020EC
:10523000208000BFE7E72DE9F04105460C46002736
:1052400014B900BFFFF7D2FF1DB90A202080BDE8C6
:10525000F0811021284600F021FF0646102E15D2BD
:1052600000BF00BF00F0F4F8074600BF00BF1022E7
:105270002946724800F02AFF00BF00BF384600F000
:10528000EBF800BF00BF0020208002E04FF47A70EE
:10529000208000BFDBE710B5FFF75EFF0446204625
:1052A00010BD704700B5014611B900BFFFF79EFF62
:1052B000634A106808B1002201E04FF4FA620A80E4
:1052C00000BD5F490860704770B50546284600F08C
:1052D000CAF80446183C204670BD70B505462846FD
:1052E00000F0C1F80446103C204670BD70B505467C
:1052F000284600F0B8F8044600BF204670BD30B51F
:1053000002460B460024D2F1FF359C4126D24FF6CF
:10531000FF74D2F1FF359C410FD26FF07F44D2F180
:10532000FF359C4103D2190E464C605C44E0190CD9
:10533000444C645C04F108003EE0FF24D2F1FF35E8
:105340009C4105D2190A3F4C645C04F1100033E023
:1053500019463C4C645C04F118002DE04FF6FF75D3
:105360000024AD1A9C4115D26FF07F450024AD1A80
:105370009C4107D2140E44EA0321324C645C04F1D0
:10538000200019E0140C44EA03412E4C645C04F143
:10539000280011E00024D2F1FF059C4107D2140A35
:1053A00044EA0361274C645C04F1300004E01146D8
:1053B000244C645C04F1380030BD70B504460CB96F
:1053C000082070BD204600F051F805462846F8E751
:1053D00070B504460CB9102070BD204600F046F8A8
:1053E00005462846F8E770B504460CB9202070BD84
:1053F000204600F03BF805462846F8E72DE9F04343
:1054000004460D46002184EA01006940084302D1A8
:105410004020BDE8F083E243E843521C40F1000124
:1054200002EA040601EA050730463946FFF767FF3E
:105430008046C8F13F094846EBE70000C41500204C
:1054400040000020BCF4000872B6704762B6704796
:10545000EFF3108072B6704780F31088704730BF4A
:10546000704720BF7047B0FA80F0704790FAA0F004
:10547000B0FA80F0704790FAA0F0704701464129D9
:1054800003DB5A2901DC012200E00022012A08D0B6
:10549000612903DB7A2901DC012200E00022012AD4
:1054A00001D1012200E00022104670470146412947
:1054B00003DB5A2901DC012200E00022012A08D086
:1054C000612903DB7A2901DC012200E00022012AA4
:1054D00001D1012200E00022012A08D0302903DB9B
:1054E000392901DC012200E00022012A01D1012238
:1054F00000E00022104670470146612903DB7A294B
:1055000001DC012200E000221046704701464129DB
:1055100003DB5A2901DC012200E00022104670471B
:105520000146302903DB392901DC012200E0002299
:10553000104670470146302903DB372901DC012280
:1055400000E00022104670470146302901DB39296E
:1055500007DD412901DB462903DD612903DB6629DB
:1055600001DC012200E0002210467047014620299C
:1055700001D0092901D1012200E000221046704724
:105580000146202909D00D2907D00A2905D00C2968
:1055900003D0092901D00B2901D1012200E000220A
:1055A000104670470146202903DB7E2901DC0122D9
:1055B00000E00022104670470146212903DB7E29C6
:1055C00001DC012200E0002210467047014620293C
:1055D00003DB7E2901DC012200E00022012A35D113
:1055E000202909D00D2907D00A2905D00C2903D07C
:1055F000092901D00B2901D1012200E000222ABB98
:10560000412903DB5A2901DC012200E00022012AA2
:1056100008D0612903DB7A2901DC012200E00022A5
:10562000012A01D1012200E00022012A08D03029FC
:1056300003DB392901DC012200E00022012A01D12B
:10564000012200E000220AB9012200E000221046F7
:10565000704701464AB2002A01DB1F2901DD7F297C
:1056600001D1012200E00022104670470146412985
:1056700003DB5A2901DC012200E00022012A02D1C9
:1056800001F1200200E00A46D0B2704701466129CC
:1056900003DB7A2901DC012200E00022012A02D189
:1056A000A1F1200200E00A46D0B27047F0B50446EE
:1056B0000B462046FFF7EAFF05461846FFF7E6FFD0
:1056C0000646B54201D1012000E0002007463846D9
:1056D000F0BD0000FC48FD49016001464160002129
:1056E0008160C160016141618161C16101620163E9
:1056F000C1624162F6498163C1634FF44061016454
:1057000041640146F34A116070472DE9F0410546B6
:105710000B4694460027002402E03F021F43641C0E
:10572000042CFAD3604605F00306294646B13446F8
:1057300003E001F8013B401E641C08B1042CF8D3BF
:105740000A4601E080C2001F0428FBD2114602E095
:1057500001F8013B401E0028FAD1BDE8F08130B5C8
:1057600005460C46224600212846FFF7CEFF30BDF5
:105770002DE9F04F85B007468846914646463D469E
:10578000AE4207D94A464146384601F01BF905B0FA
:10579000BDE8F08F4C4607EB0900451E08EB0900F9
:1057A000461EA81B04900498042834D305F0030077
:1057B000029006F003010191DDE90110884201D158
:1057C000012000E0002000900098012823D10298D9
:1057D000032810D0029840B2039008E016F801099F
:1057E00005F80109641E0398401E40B2039014B1ED
:1057F00003980028F2DAA5F1030AA6F1030B04E0EE
:105800005BF804094AF80409241F042CF8D20AF1B1
:1058100003050BF1030604E016F8010905F8010978
:10582000641E002CF8D100BFB1E72DE9F84F804687
:105830008946154615B90120BDE8F88FB8F1000F6B
:1058400001D10020F8E7B9F1000F01D10020F3E702
:105850000124294608EB050209EB050302F0030CBD
:1058600003F0030BDC4501D1012000E00020009093
:105870000098012829D1BCF1000F12D0E2460AE0BD
:10588000521E5B1E107893F800E0704500D0002493
:10589000491EAAF1010A012C03D111B1BAF1000F7E
:1058A000EED1012C11D116461F4608E0361F3F1FCE
:1058B0003068D7F800E0704500D00024091F012CA3
:1058C00001D10429F2D232463B4608E0521E5B1E4B
:1058D000107893F800E0704500D00024491E012C98
:1058E00001D10029F2D12046A6E7F0B503460E46C5
:1058F0001546D96BB1FBF5F005FB101CBCF1000F90
:1059000002D0A5EB0C0200E000229419586CA042D2
:1059100001D20020F0BD0F191144DF63586C001B49
:1059200058640846F6E72DE9F04106460F46B6FBF7
:10593000F3FC03FB1C6109B15C1A00E00024B2FB1C
:10594000F3FC03FB1C2109B15D1A00E0002502EB0A
:105950000508A7F1010C08FB0C4C0CEB0200BDE89C
:10596000F0812DE9FE4F8046894614461E460020F0
:1059700000900CB901AC00BF00202060524F00BF66
:1059800000BFFFF765FD009000BF00BFF86B0290FD
:10599000D7F844B04B46424601210298FFF7C3FFB7
:1059A00005465D450FD900BF00BF0098FFF754FDC5
:1059B00000BF00BFA5EB0B00206042F2E270308018
:1059C0000020BDE8FE8F4A4641463846FFF78DFF6E
:1059D0008246BAF1000F0CD100BF00BF0098FFF75C
:1059E0003BFD00BF00BF256042F2E2703080002026
:1059F000E7E700BF00BF0098FFF72EFD00BF00BF24
:105A000042F2107030805046DBE72DE9FC5F07461C
:105A10000C4690460020009000BF00BFFFF718FD25
:105A2000009000BF00BFD7F80490D9F8380008B143
:105A3000484600E024488246DAF84450DAF83CB0A0
:105A400000BF00BF0098FFF707FD00BF00BF012C9B
:105A50000AD9BBFBF4F004FB10B60EB1A01B00E0AA
:105A60000020019001982D1A42F21070A8F8000051
:105A70002846BDE8FC9F70B504460D462A462146DF
:105A80001148FFF7C2FF0646304670BD18B942F212
:105A900011720A807047104A0260002242608260E0
:105AA000C260026142618261C261026282624263DB
:105AB0000263C26242628263C2630264426442F26F
:105AC00010720A8000BFE5E7D41500204845415018
:105AD0001C160020440000204E4F4E452DE9FF4F7C
